{
  "contractName": "Riddle",
  "abi": [
    {
      "inputs": [
        {
          "internalType": "string",
          "name": "riddle",
          "type": "string"
        },
        {
          "internalType": "string",
          "name": "answer",
          "type": "string"
        },
        {
          "internalType": "uint256",
          "name": "guessCostValue",
          "type": "uint256"
        },
        {
          "internalType": "uint256",
          "name": "creatorFeePercentValue",
          "type": "uint256"
        },
        {
          "internalType": "address",
          "name": "ownerAddress",
          "type": "address"
        },
        {
          "internalType": "address",
          "name": "creatorAddress",
          "type": "address"
        },
        {
          "internalType": "string",
          "name": "salt",
          "type": "string"
        }
      ],
      "stateMutability": "payable",
      "type": "constructor"
    },
    {
      "anonymous": false,
      "inputs": [
        {
          "indexed": false,
          "internalType": "string",
          "name": "guessText",
          "type": "string"
        },
        {
          "indexed": false,
          "internalType": "bool",
          "name": "correct",
          "type": "bool"
        }
      ],
      "name": "GuessEvent",
      "type": "event"
    },
    {
      "inputs": [],
      "name": "answerHash",
      "outputs": [
        {
          "internalType": "bytes32",
          "name": "",
          "type": "bytes32"
        }
      ],
      "stateMutability": "view",
      "type": "function"
    },
    {
      "inputs": [],
      "name": "answerSalt",
      "outputs": [
        {
          "internalType": "bytes32",
          "name": "",
          "type": "bytes32"
        }
      ],
      "stateMutability": "view",
      "type": "function"
    },
    {
      "inputs": [],
      "name": "answerText",
      "outputs": [
        {
          "internalType": "string",
          "name": "",
          "type": "string"
        }
      ],
      "stateMutability": "view",
      "type": "function"
    },
    {
      "inputs": [],
      "name": "creator",
      "outputs": [
        {
          "internalType": "address",
          "name": "",
          "type": "address"
        }
      ],
      "stateMutability": "view",
      "type": "function"
    },
    {
      "inputs": [],
      "name": "creatorFeePercent",
      "outputs": [
        {
          "internalType": "uint256",
          "name": "",
          "type": "uint256"
        }
      ],
      "stateMutability": "view",
      "type": "function"
    },
    {
      "inputs": [],
      "name": "guessCost",
      "outputs": [
        {
          "internalType": "uint256",
          "name": "",
          "type": "uint256"
        }
      ],
      "stateMutability": "view",
      "type": "function"
    },
    {
      "inputs": [],
      "name": "isAnswered",
      "outputs": [
        {
          "internalType": "bool",
          "name": "",
          "type": "bool"
        }
      ],
      "stateMutability": "view",
      "type": "function"
    },
    {
      "inputs": [],
      "name": "owner",
      "outputs": [
        {
          "internalType": "address",
          "name": "",
          "type": "address"
        }
      ],
      "stateMutability": "view",
      "type": "function"
    },
    {
      "inputs": [],
      "name": "prize",
      "outputs": [
        {
          "internalType": "uint256",
          "name": "",
          "type": "uint256"
        }
      ],
      "stateMutability": "view",
      "type": "function"
    },
    {
      "inputs": [],
      "name": "riddleText",
      "outputs": [
        {
          "internalType": "string",
          "name": "",
          "type": "string"
        }
      ],
      "stateMutability": "view",
      "type": "function"
    },
    {
      "inputs": [],
      "name": "winner",
      "outputs": [
        {
          "internalType": "address",
          "name": "",
          "type": "address"
        }
      ],
      "stateMutability": "view",
      "type": "function"
    },
    {
      "inputs": [],
      "name": "destroy",
      "outputs": [],
      "stateMutability": "nonpayable",
      "type": "function"
    },
    {
      "inputs": [
        {
          "internalType": "string",
          "name": "guessText",
          "type": "string"
        }
      ],
      "name": "guess",
      "outputs": [],
      "stateMutability": "payable",
      "type": "function"
    }
  ],
  "bytecode": "0x608060405260405162001af238038062001af283398181016040528101906200002991906200043f565b606484106200006f576040517f08c379a00000000000000000000000000000000000000000000000000000000081526004016200006690620005f5565b60405180910390fd5b82600160006101000a81548173ffffffffffffffffffffffffffffffffffffffff021916908373ffffffffffffffffffffffffffffffffffffffff1602179055508660059080519060200190620000c8929190620002ac565b50600281604051620000db9190620005b0565b602060405180830381855afa158015620000f9573d6000803e3d6000fd5b5050506040513d601f19601f820116820180604052508101906200011e919062000413565b6007819055506002866007546040516020016200013d929190620005c9565b6040516020818303038152906040526040516200015b9190620005b0565b602060405180830381855afa15801562000179573d6000803e3d6000fd5b5050506040513d601f19601f820116820180604052508101906200019e919062000413565b6006819055508460028190555083600481905550836064620001c191906200069d565b606434620001d0919062000732565b620001dc9190620006fa565b600381905550600060035434620001f4919062000793565b9050826000806101000a81548173ffffffffffffffffffffffffffffffffffffffff021916908373ffffffffffffffffffffffffffffffffffffffff16021790555060008054906101000a900473ffffffffffffffffffffffffffffffffffffffff1673ffffffffffffffffffffffffffffffffffffffff166108fc829081150290604051600060405180830381858888f193505050501580156200029d573d6000803e3d6000fd5b50505050505050505062000a06565b828054620002ba906200084c565b90600052602060002090601f016020900481019282620002de57600085556200032a565b82601f10620002f957805160ff19168380011785556200032a565b828001600101855582156200032a579182015b82811115620003295782518255916020019190600101906200030c565b5b5090506200033991906200033d565b5090565b5b80821115620003585760008160009055506001016200033e565b5090565b6000620003736200036d8462000640565b62000617565b9050828152602081018484840111156200038c57600080fd5b6200039984828562000816565b509392505050565b600081519050620003b281620009b8565b92915050565b600081519050620003c981620009d2565b92915050565b600082601f830112620003e157600080fd5b8151620003f38482602086016200035c565b91505092915050565b6000815190506200040d81620009ec565b92915050565b6000602082840312156200042657600080fd5b60006200043684828501620003b8565b91505092915050565b600080600080600080600060e0888a0312156200045b57600080fd5b600088015167ffffffffffffffff8111156200047657600080fd5b620004848a828b01620003cf565b975050602088015167ffffffffffffffff811115620004a257600080fd5b620004b08a828b01620003cf565b9650506040620004c38a828b01620003fc565b9550506060620004d68a828b01620003fc565b9450506080620004e98a828b01620003a1565b93505060a0620004fc8a828b01620003a1565b92505060c088015167ffffffffffffffff8111156200051a57600080fd5b620005288a828b01620003cf565b91505092959891949750929550565b6200054c6200054682620007e2565b620008b8565b82525050565b60006200055f8262000676565b6200056b818562000681565b93506200057d81856020860162000816565b80840191505092915050565b6000620005986014836200068c565b9150620005a5826200098f565b602082019050919050565b6000620005be828462000552565b915081905092915050565b6000620005d7828562000552565b9150620005e5828462000537565b6020820191508190509392505050565b60006020820190508181036000830152620006108162000589565b9050919050565b60006200062362000636565b905062000631828262000882565b919050565b6000604051905090565b600067ffffffffffffffff8211156200065e576200065d6200094f565b5b62000669826200097e565b9050602081019050919050565b600081519050919050565b600081905092915050565b600082825260208201905092915050565b6000620006aa826200080c565b9150620006b7836200080c565b9250827fffffffffffffffffffffffffffffffffffffffffffffffffffffffffffffffff03821115620006ef57620006ee620008c2565b5b828201905092915050565b600062000707826200080c565b915062000714836200080c565b925082620007275762000726620008f1565b5b828204905092915050565b60006200073f826200080c565b91506200074c836200080c565b9250817fffffffffffffffffffffffffffffffffffffffffffffffffffffffffffffffff0483118215151615620007885762000787620008c2565b5b828202905092915050565b6000620007a0826200080c565b9150620007ad836200080c565b925082821015620007c357620007c2620008c2565b5b828203905092915050565b6000620007db82620007ec565b9050919050565b6000819050919050565b600073ffffffffffffffffffffffffffffffffffffffff82169050919050565b6000819050919050565b60005b838110156200083657808201518184015260208101905062000819565b8381111562000846576000848401525b50505050565b600060028204905060018216806200086557607f821691505b602082108114156200087c576200087b62000920565b5b50919050565b6200088d826200097e565b810181811067ffffffffffffffff82111715620008af57620008ae6200094f565b5b80604052505050565b6000819050919050565b7f4e487b7100000000000000000000000000000000000000000000000000000000600052601160045260246000fd5b7f4e487b7100000000000000000000000000000000000000000000000000000000600052601260045260246000fd5b7f4e487b7100000000000000000000000000000000000000000000000000000000600052602260045260246000fd5b7f4e487b7100000000000000000000000000000000000000000000000000000000600052604160045260246000fd5b6000601f19601f8301169050919050565b7f496e76616c69642063726561746f72206665652e000000000000000000000000600082015250565b620009c381620007ce565b8114620009cf57600080fd5b50565b620009dd81620007e2565b8114620009e957600080fd5b50565b620009f7816200080c565b811462000a0357600080fd5b50565b6110dc8062000a166000396000f3fe6080604052600436106100c25760003560e01c80637ccbe9f11161007f578063c735606011610059578063c735606014610227578063c918987914610252578063dfbf53ae1461027d578063e3ac5d26146102a8576100c2565b80637ccbe9f1146101ba57806383197ef0146101e55780638da5cb5b146101fc576100c2565b806302d05d3f146100c757806321c8e52d146100f25780633853ae5c1461011d578063422bdad8146101485780634eee59b31461017357806353613dd31461018f575b600080fd5b3480156100d357600080fd5b506100dc6102d3565b6040516100e99190610b8b565b60405180910390f35b3480156100fe57600080fd5b506101076102f7565b6040516101149190610bdc565b60405180910390f35b34801561012957600080fd5b50610132610385565b60405161013f9190610bdc565b60405180910390f35b34801561015457600080fd5b5061015d610413565b60405161016a9190610ba6565b60405180910390f35b61018d600480360381019061018891906109e5565b610426565b005b34801561019b57600080fd5b506101a4610767565b6040516101b19190610c8e565b60405180910390f35b3480156101c657600080fd5b506101cf61076d565b6040516101dc9190610c8e565b60405180910390f35b3480156101f157600080fd5b506101fa610773565b005b34801561020857600080fd5b5061021161083e565b60405161021e9190610b8b565b60405180910390f35b34801561023357600080fd5b5061023c610864565b6040516102499190610bc1565b60405180910390f35b34801561025e57600080fd5b5061026761086a565b6040516102749190610bc1565b60405180910390f35b34801561028957600080fd5b50610292610870565b60405161029f9190610b8b565b60405180910390f35b3480156102b457600080fd5b506102bd610896565b6040516102ca9190610c8e565b60405180910390f35b60008054906101000a900473ffffffffffffffffffffffffffffffffffffffff1681565b6008805461030490610eda565b80601f016020809104026020016040519081016040528092919081815260200182805461033090610eda565b801561037d5780601f106103525761010080835404028352916020019161037d565b820191906000526020600020905b81548152906001019060200180831161036057829003601f168201915b505050505081565b6005805461039290610eda565b80601f01602080910402602001604051908101604052809291908181526020018280546103be90610eda565b801561040b5780601f106103e05761010080835404028352916020019161040b565b820191906000526020600020905b8154815290600101906020018083116103ee57829003601f168201915b505050505081565b600960009054906101000a900460ff1681565b600960009054906101000a900460ff1615610476576040517f08c379a000000000000000000000000000000000000000000000000000000000815260040161046d90610c6e565b60405180910390fd5b60025434146104ba576040517f08c379a00000000000000000000000000000000000000000000000000000000081526004016104b190610c4e565b60405180910390fd5b600060045460646104cb9190610d31565b6064346104d89190610db8565b6104e29190610d87565b9050600081346104f29190610e12565b9050600082111561056757600160009054906101000a900473ffffffffffffffffffffffffffffffffffffffff1673ffffffffffffffffffffffffffffffffffffffff166108fc839081150290604051600060405180830381858888f19350505050158015610565573d6000803e3d6000fd5b505b60008111156105d85760008054906101000a900473ffffffffffffffffffffffffffffffffffffffff1673ffffffffffffffffffffffffffffffffffffffff166108fc829081150290604051600060405180830381858888f193505050501580156105d6573d6000803e3d6000fd5b505b60006002846007546040516020016105f1929190610b63565b60405160208183030381529060405260405161060d9190610b4c565b602060405180830381855afa15801561062a573d6000803e3d6000fd5b5050506040513d601f19601f8201168201806040525081019061064d91906109bc565b90506000600654821490507fe257493aadf7f46b45ae5043c2479a0f9a5d7ddd159e0d145b81e1501b3ffb6a8582604051610689929190610bfe565b60405180910390a180156107605784600890805190602001906106ad92919061089c565b506001600960006101000a81548160ff02191690831515021790555033600960016101000a81548173ffffffffffffffffffffffffffffffffffffffff021916908373ffffffffffffffffffffffffffffffffffffffff1602179055506000600354111561075f573373ffffffffffffffffffffffffffffffffffffffff166108fc6003549081150290604051600060405180830381858888f1935050505015801561075d573d6000803e3d6000fd5b505b5b5050505050565b60045481565b60025481565b600160009054906101000a900473ffffffffffffffffffffffffffffffffffffffff1673ffffffffffffffffffffffffffffffffffffffff163373ffffffffffffffffffffffffffffffffffffffff1614610803576040517f08c379a00000000000000000000000000000000000000000000000000000000081526004016107fa90610c2e565b60405180910390fd5b600160009054906101000a900473ffffffffffffffffffffffffffffffffffffffff1673ffffffffffffffffffffffffffffffffffffffff16ff5b600160009054906101000a900473ffffffffffffffffffffffffffffffffffffffff1681565b60065481565b60075481565b600960019054906101000a900473ffffffffffffffffffffffffffffffffffffffff1681565b60035481565b8280546108a890610eda565b90600052602060002090601f0160209004810192826108ca5760008555610911565b82601f106108e357805160ff1916838001178555610911565b82800160010185558215610911579182015b828111156109105782518255916020019190600101906108f5565b5b50905061091e9190610922565b5090565b5b8082111561093b576000816000905550600101610923565b5090565b600061095261094d84610cce565b610ca9565b90508281526020810184848401111561096a57600080fd5b610975848285610e98565b509392505050565b60008151905061098c8161108f565b92915050565b600082601f8301126109a357600080fd5b81356109b384826020860161093f565b91505092915050565b6000602082840312156109ce57600080fd5b60006109dc8482850161097d565b91505092915050565b6000602082840312156109f757600080fd5b600082013567ffffffffffffffff811115610a1157600080fd5b610a1d84828501610992565b91505092915050565b610a2f81610e46565b82525050565b610a3e81610e58565b82525050565b610a4d81610e64565b82525050565b610a64610a5f82610e64565b610f3d565b82525050565b6000610a7582610cff565b610a7f8185610d15565b9350610a8f818560208601610ea7565b80840191505092915050565b6000610aa682610d0a565b610ab08185610d20565b9350610ac0818560208601610ea7565b610ac981611003565b840191505092915050565b6000610ae1600e83610d20565b9150610aec82611014565b602082019050919050565b6000610b04601583610d20565b9150610b0f8261103d565b602082019050919050565b6000610b27601083610d20565b9150610b3282611066565b602082019050919050565b610b4681610e8e565b82525050565b6000610b588284610a6a565b915081905092915050565b6000610b6f8285610a6a565b9150610b7b8284610a53565b6020820191508190509392505050565b6000602082019050610ba06000830184610a26565b92915050565b6000602082019050610bbb6000830184610a35565b92915050565b6000602082019050610bd66000830184610a44565b92915050565b60006020820190508181036000830152610bf68184610a9b565b905092915050565b60006040820190508181036000830152610c188185610a9b565b9050610c276020830184610a35565b9392505050565b60006020820190508181036000830152610c4781610ad4565b9050919050565b60006020820190508181036000830152610c6781610af7565b9050919050565b60006020820190508181036000830152610c8781610b1a565b9050919050565b6000602082019050610ca36000830184610b3d565b92915050565b6000610cb3610cc4565b9050610cbf8282610f0c565b919050565b6000604051905090565b600067ffffffffffffffff821115610ce957610ce8610fd4565b5b610cf282611003565b9050602081019050919050565b600081519050919050565b600081519050919050565b600081905092915050565b600082825260208201905092915050565b6000610d3c82610e8e565b9150610d4783610e8e565b9250827fffffffffffffffffffffffffffffffffffffffffffffffffffffffffffffffff03821115610d7c57610d7b610f47565b5b828201905092915050565b6000610d9282610e8e565b9150610d9d83610e8e565b925082610dad57610dac610f76565b5b828204905092915050565b6000610dc382610e8e565b9150610dce83610e8e565b9250817fffffffffffffffffffffffffffffffffffffffffffffffffffffffffffffffff0483118215151615610e0757610e06610f47565b5b828202905092915050565b6000610e1d82610e8e565b9150610e2883610e8e565b925082821015610e3b57610e3a610f47565b5b828203905092915050565b6000610e5182610e6e565b9050919050565b60008115159050919050565b6000819050919050565b600073ffffffffffffffffffffffffffffffffffffffff82169050919050565b6000819050919050565b82818337600083830152505050565b60005b83811015610ec5578082015181840152602081019050610eaa565b83811115610ed4576000848401525b50505050565b60006002820490506001821680610ef257607f821691505b60208210811415610f0657610f05610fa5565b5b50919050565b610f1582611003565b810181811067ffffffffffffffff82111715610f3457610f33610fd4565b5b80604052505050565b6000819050919050565b7f4e487b7100000000000000000000000000000000000000000000000000000000600052601160045260246000fd5b7f4e487b7100000000000000000000000000000000000000000000000000000000600052601260045260246000fd5b7f4e487b7100000000000000000000000000000000000000000000000000000000600052602260045260246000fd5b7f4e487b7100000000000000000000000000000000000000000000000000000000600052604160045260246000fd5b6000601f19601f8301169050919050565b7f4163636573732064656e6965642e000000000000000000000000000000000000600082015250565b7f496e76616c696420677565737320616d6f756e742e0000000000000000000000600082015250565b7f536f7272792c20746f6f206c6174652100000000000000000000000000000000600082015250565b61109881610e64565b81146110a357600080fd5b5056fea26469706673582212206bfb99af38e168ce5a1be2f4cde4d0ac12e74c1d2cb9168f536389bd39522e3964736f6c63430008040033",
  "immutableReferences": {},
  "source": "// SPDX-License-Identifier: GPL-3.0\n\npragma solidity >=0.7.0 <0.9.0;\n\n\ncontract Riddle {\n    \n    address public creator;\n    address public owner;\n    uint public guessCost;\n    uint public prize;\n    uint public creatorFeePercent;\n\n    string public riddleText;\n\n    bytes32 public answerHash;\n    bytes32 public answerSalt;\n    \n    string public answerText;\n    bool public isAnswered;\n    address public winner;\n\n    event GuessEvent(string guessText, bool correct);\n\n    constructor(\n        string memory riddle,\n        string memory answer,\n        uint guessCostValue,\n        uint creatorFeePercentValue,\n        address ownerAddress,\n        address creatorAddress,\n        string memory salt\n    ) payable {\n        require(creatorFeePercentValue < 100, \"Invalid creator fee.\");\n        owner = ownerAddress;\n        riddleText = riddle;\n        answerSalt = sha256(bytes(salt));\n        answerHash = sha256(abi.encodePacked(bytes(answer), answerSalt));\n        guessCost = guessCostValue;\n        creatorFeePercent = creatorFeePercentValue;\n        prize = msg.value * 100 / (100 + creatorFeePercentValue);\n        uint creationCost = msg.value - prize;\n        creator = creatorAddress;\n        payable(creator).transfer(creationCost);\n    }\n\n    function destroy() public {\n        require(msg.sender == owner, \"Access denied.\");\n        selfdestruct(payable(owner));\n    }\n    \n    function guess(string memory guessText) public payable {\n        require(!isAnswered, \"Sorry, too late!\");\n        require(msg.value == guessCost, \"Invalid guess amount.\");\n        // pay the owner the guess cost\n        uint ownerShare = msg.value * 100 / (100 + creatorFeePercent);\n        uint creatorShare = msg.value - ownerShare;\n        if (ownerShare > 0) {\n            payable(owner).transfer(ownerShare);\n        }\n        if (creatorShare > 0) {\n            payable(creator).transfer(creatorShare);\n        }\n        // check that this address can guess\n        bytes32 guessHash = sha256(abi.encodePacked(bytes(guessText), answerSalt));\n        bool correct = guessHash == answerHash;\n        emit GuessEvent(guessText, correct);\n        if (correct) {\n            // success!\n            answerText = guessText;\n            isAnswered = true;\n            winner = msg.sender;\n            if (prize > 0) {\n                payable(msg.sender).transfer(prize);\n            }\n        }\n    }\n\n}\n",
  "sourcePath": "/Users/cam/Projects/trolltoll.crypto/contracts/Riddle.sol",
  "compiler": {
    "name": "solc",
    "version": "0.8.4+commit.c7e474f2.Emscripten.clang"
  },
  "schemaVersion": "3.4.1",
  "updatedAt": "2021-07-11T05:09:32.527Z",
  "devdoc": {
    "kind": "dev",
    "methods": {},
    "version": 1
  },
  "userdoc": {
    "kind": "user",
    "methods": {},
    "version": 1
  }
}