{
  "contractName": "Riddler",
  "abi": [
    {
      "inputs": [
        {
          "internalType": "uint256",
          "name": "creatorFeePercentValue",
          "type": "uint256"
        }
      ],
      "stateMutability": "nonpayable",
      "type": "constructor"
    },
    {
      "anonymous": false,
      "inputs": [
        {
          "indexed": false,
          "internalType": "string",
          "name": "riddle",
          "type": "string"
        },
        {
          "indexed": false,
          "internalType": "address",
          "name": "contractAddress",
          "type": "address"
        }
      ],
      "name": "RiddleCreated",
      "type": "event"
    },
    {
      "inputs": [],
      "name": "creator",
      "outputs": [
        {
          "internalType": "address",
          "name": "",
          "type": "address"
        }
      ],
      "stateMutability": "view",
      "type": "function",
      "constant": true
    },
    {
      "inputs": [],
      "name": "creatorFeePercent",
      "outputs": [
        {
          "internalType": "uint256",
          "name": "",
          "type": "uint256"
        }
      ],
      "stateMutability": "view",
      "type": "function",
      "constant": true
    },
    {
      "inputs": [],
      "name": "destroy",
      "outputs": [],
      "stateMutability": "nonpayable",
      "type": "function"
    },
    {
      "inputs": [
        {
          "internalType": "string",
          "name": "riddle",
          "type": "string"
        },
        {
          "internalType": "string",
          "name": "answer",
          "type": "string"
        },
        {
          "internalType": "uint256",
          "name": "guessCostValue",
          "type": "uint256"
        },
        {
          "internalType": "string",
          "name": "salt",
          "type": "string"
        }
      ],
      "name": "riddleMeThis",
      "outputs": [
        {
          "internalType": "address",
          "name": "",
          "type": "address"
        }
      ],
      "stateMutability": "nonpayable",
      "type": "function"
    }
  ],
  "bytecode": "0x608060405234801561001057600080fd5b5060405161245238038061245283398181016040528101906100329190610094565b336000806101000a81548173ffffffffffffffffffffffffffffffffffffffff021916908373ffffffffffffffffffffffffffffffffffffffff16021790555080600181905550506100de565b60008151905061008e816100c7565b92915050565b6000602082840312156100a657600080fd5b60006100b48482850161007f565b91505092915050565b6000819050919050565b6100d0816100bd565b81146100db57600080fd5b50565b612365806100ed6000396000f3fe60806040523480156200001157600080fd5b5060043610620000525760003560e01c806302d05d3f14620000575780631633a2ff146200007957806353613dd314620000af57806383197ef014620000d1575b600080fd5b62000061620000dd565b60405162000070919062000460565b60405180910390f35b6200009760048036038101906200009191906200031f565b62000101565b604051620000a6919062000460565b60405180910390f35b620000b9620001b8565b604051620000c8919062000555565b60405180910390f35b620000db620001be565b005b60008054906101000a900473ffffffffffffffffffffffffffffffffffffffff1681565b60008085858560015460008054906101000a900473ffffffffffffffffffffffffffffffffffffffff16876040516200013a9062000288565b6200014b96959493929190620004b1565b604051809103906000f08015801562000168573d6000803e3d6000fd5b50905060008190507f8d30674c58dacdb64acec7d27c7d1cd4b04eb6c3df5f2f55dd85804209c304918782604051620001a39291906200047d565b60405180910390a18092505050949350505050565b60015481565b60008054906101000a900473ffffffffffffffffffffffffffffffffffffffff1673ffffffffffffffffffffffffffffffffffffffff163373ffffffffffffffffffffffffffffffffffffffff16146200024f576040517f08c379a0000000000000000000000000000000000000000000000000000000008152600401620002469062000533565b60405180910390fd5b60008054906101000a900473ffffffffffffffffffffffffffffffffffffffff1673ffffffffffffffffffffffffffffffffffffffff16ff5b611c06806200072a83390190565b6000620002ad620002a7846200059b565b62000572565b905082815260208101848484011115620002c657600080fd5b620002d38482856200062b565b509392505050565b600082601f830112620002ed57600080fd5b8135620002ff84826020860162000296565b91505092915050565b60008135905062000319816200070f565b92915050565b600080600080608085870312156200033657600080fd5b600085013567ffffffffffffffff8111156200035157600080fd5b6200035f87828801620002db565b945050602085013567ffffffffffffffff8111156200037d57600080fd5b6200038b87828801620002db565b93505060406200039e8782880162000308565b925050606085013567ffffffffffffffff811115620003bc57600080fd5b620003ca87828801620002db565b91505092959194509250565b620003e181620005ed565b82525050565b6000620003f482620005d1565b620004008185620005dc565b9350620004128185602086016200063a565b6200041d81620006d5565b840191505092915050565b600062000437600e83620005dc565b91506200044482620006e6565b602082019050919050565b6200045a8162000621565b82525050565b6000602082019050620004776000830184620003d6565b92915050565b60006040820190508181036000830152620004998185620003e7565b9050620004aa6020830184620003d6565b9392505050565b600060c0820190508181036000830152620004cd8189620003e7565b90508181036020830152620004e38188620003e7565b9050620004f460408301876200044f565b6200050360608301866200044f565b620005126080830185620003d6565b81810360a0830152620005268184620003e7565b9050979650505050505050565b600060208201905081810360008301526200054e8162000428565b9050919050565b60006020820190506200056c60008301846200044f565b92915050565b60006200057e62000591565b90506200058c828262000670565b919050565b6000604051905090565b600067ffffffffffffffff821115620005b957620005b8620006a6565b5b620005c482620006d5565b9050602081019050919050565b600081519050919050565b600082825260208201905092915050565b6000620005fa8262000601565b9050919050565b600073ffffffffffffffffffffffffffffffffffffffff82169050919050565b6000819050919050565b82818337600083830152505050565b60005b838110156200065a5780820151818401526020810190506200063d565b838111156200066a576000848401525b50505050565b6200067b82620006d5565b810181811067ffffffffffffffff821117156200069d576200069c620006a6565b5b80604052505050565b7f4e487b7100000000000000000000000000000000000000000000000000000000600052604160045260246000fd5b6000601f19601f8301169050919050565b7f4163636573732064656e6965642e000000000000000000000000000000000000600082015250565b6200071a8162000621565b81146200072657600080fd5b5056fe608060405260405162001c0638038062001c0683398181016040528101906200002991906200043e565b606483106200006f576040517f08c379a00000000000000000000000000000000000000000000000000000000081526004016200006690620005dd565b60405180910390fd5b33600160006101000a81548173ffffffffffffffffffffffffffffffffffffffff021916908373ffffffffffffffffffffffffffffffffffffffff1602179055508560059080519060200190620000c8929190620002ab565b50600281604051620000db919062000598565b602060405180830381855afa158015620000f9573d6000803e3d6000fd5b5050506040513d601f19601f820116820180604052508101906200011e919062000412565b6007819055506002856007546040516020016200013d929190620005b1565b6040516020818303038152906040526040516200015b919062000598565b602060405180830381855afa15801562000179573d6000803e3d6000fd5b5050506040513d601f19601f820116820180604052508101906200019e919062000412565b6006819055508360028190555082600481905550826064620001c1919062000685565b606434620001d091906200071a565b620001dc9190620006e2565b600381905550600060035434620001f491906200077b565b9050826000806101000a81548173ffffffffffffffffffffffffffffffffffffffff021916908373ffffffffffffffffffffffffffffffffffffffff16021790555060008054906101000a900473ffffffffffffffffffffffffffffffffffffffff1673ffffffffffffffffffffffffffffffffffffffff166108fc829081150290604051600060405180830381858888f193505050501580156200029d573d6000803e3d6000fd5b5050505050505050620009ee565b828054620002b99062000834565b90600052602060002090601f016020900481019282620002dd576000855562000329565b82601f10620002f857805160ff191683800117855562000329565b8280016001018555821562000329579182015b82811115620003285782518255916020019190600101906200030b565b5b5090506200033891906200033c565b5090565b5b80821115620003575760008160009055506001016200033d565b5090565b6000620003726200036c8462000628565b620005ff565b9050828152602081018484840111156200038b57600080fd5b62000398848285620007fe565b509392505050565b600081519050620003b181620009a0565b92915050565b600081519050620003c881620009ba565b92915050565b600082601f830112620003e057600080fd5b8151620003f28482602086016200035b565b91505092915050565b6000815190506200040c81620009d4565b92915050565b6000602082840312156200042557600080fd5b60006200043584828501620003b7565b91505092915050565b60008060008060008060c087890312156200045857600080fd5b600087015167ffffffffffffffff8111156200047357600080fd5b6200048189828a01620003ce565b965050602087015167ffffffffffffffff8111156200049f57600080fd5b620004ad89828a01620003ce565b9550506040620004c089828a01620003fb565b9450506060620004d389828a01620003fb565b9350506080620004e689828a01620003a0565b92505060a087015167ffffffffffffffff8111156200050457600080fd5b6200051289828a01620003ce565b9150509295509295509295565b620005346200052e82620007ca565b620008a0565b82525050565b600062000547826200065e565b62000553818562000669565b935062000565818560208601620007fe565b80840191505092915050565b60006200058060148362000674565b91506200058d8262000977565b602082019050919050565b6000620005a682846200053a565b915081905092915050565b6000620005bf82856200053a565b9150620005cd82846200051f565b6020820191508190509392505050565b60006020820190508181036000830152620005f88162000571565b9050919050565b60006200060b6200061e565b90506200061982826200086a565b919050565b6000604051905090565b600067ffffffffffffffff82111562000646576200064562000937565b5b620006518262000966565b9050602081019050919050565b600081519050919050565b600081905092915050565b600082825260208201905092915050565b60006200069282620007f4565b91506200069f83620007f4565b9250827fffffffffffffffffffffffffffffffffffffffffffffffffffffffffffffffff03821115620006d757620006d6620008aa565b5b828201905092915050565b6000620006ef82620007f4565b9150620006fc83620007f4565b9250826200070f576200070e620008d9565b5b828204905092915050565b60006200072782620007f4565b91506200073483620007f4565b9250817fffffffffffffffffffffffffffffffffffffffffffffffffffffffffffffffff048311821515161562000770576200076f620008aa565b5b828202905092915050565b60006200078882620007f4565b91506200079583620007f4565b925082821015620007ab57620007aa620008aa565b5b828203905092915050565b6000620007c382620007d4565b9050919050565b6000819050919050565b600073ffffffffffffffffffffffffffffffffffffffff82169050919050565b6000819050919050565b60005b838110156200081e57808201518184015260208101905062000801565b838111156200082e576000848401525b50505050565b600060028204905060018216806200084d57607f821691505b6020821081141562000864576200086362000908565b5b50919050565b620008758262000966565b810181811067ffffffffffffffff8211171562000897576200089662000937565b5b80604052505050565b6000819050919050565b7f4e487b7100000000000000000000000000000000000000000000000000000000600052601160045260246000fd5b7f4e487b7100000000000000000000000000000000000000000000000000000000600052601260045260246000fd5b7f4e487b7100000000000000000000000000000000000000000000000000000000600052602260045260246000fd5b7f4e487b7100000000000000000000000000000000000000000000000000000000600052604160045260246000fd5b6000601f19601f8301169050919050565b7f496e76616c69642063726561746f72206665652e000000000000000000000000600082015250565b620009ab81620007b6565b8114620009b757600080fd5b50565b620009c581620007ca565b8114620009d157600080fd5b50565b620009df81620007f4565b8114620009eb57600080fd5b50565b61120880620009fe6000396000f3fe6080604052600436106100c25760003560e01c80637ccbe9f11161007f578063c735606011610059578063c73560601461023b578063c918987914610266578063dfbf53ae14610291578063e3ac5d26146102bc576100c2565b80637ccbe9f1146101ce57806383197ef0146101f95780638da5cb5b14610210576100c2565b806302d05d3f146100c757806321c8e52d146100f25780633853ae5c1461011d578063422bdad8146101485780634eee59b31461017357806353613dd3146101a3575b600080fd5b3480156100d357600080fd5b506100dc6102e7565b6040516100e99190610c48565b60405180910390f35b3480156100fe57600080fd5b5061010761030b565b6040516101149190610c99565b60405180910390f35b34801561012957600080fd5b50610132610399565b60405161013f9190610c99565b60405180910390f35b34801561015457600080fd5b5061015d610427565b60405161016a9190610c63565b60405180910390f35b61018d60048036038101906101889190610a7f565b61043a565b60405161019a9190610c63565b60405180910390f35b3480156101af57600080fd5b506101b8610801565b6040516101c59190610d6b565b60405180910390f35b3480156101da57600080fd5b506101e3610807565b6040516101f09190610d6b565b60405180910390f35b34801561020557600080fd5b5061020e61080d565b005b34801561021c57600080fd5b506102256108d8565b6040516102329190610c48565b60405180910390f35b34801561024757600080fd5b506102506108fe565b60405161025d9190610c7e565b60405180910390f35b34801561027257600080fd5b5061027b610904565b6040516102889190610c7e565b60405180910390f35b34801561029d57600080fd5b506102a661090a565b6040516102b39190610c48565b60405180910390f35b3480156102c857600080fd5b506102d1610930565b6040516102de9190610d6b565b60405180910390f35b60008054906101000a900473ffffffffffffffffffffffffffffffffffffffff1681565b6008805461031890610fb7565b80601f016020809104026020016040519081016040528092919081815260200182805461034490610fb7565b80156103915780601f1061036657610100808354040283529160200191610391565b820191906000526020600020905b81548152906001019060200180831161037457829003601f168201915b505050505081565b600580546103a690610fb7565b80601f01602080910402602001604051908101604052809291908181526020018280546103d290610fb7565b801561041f5780601f106103f45761010080835404028352916020019161041f565b820191906000526020600020905b81548152906001019060200180831161040257829003601f168201915b505050505081565b600960009054906101000a900460ff1681565b6000600960009054906101000a900460ff161561048c576040517f08c379a000000000000000000000000000000000000000000000000000000000815260040161048390610d4b565b60405180910390fd5b600160009054906101000a900473ffffffffffffffffffffffffffffffffffffffff1673ffffffffffffffffffffffffffffffffffffffff163373ffffffffffffffffffffffffffffffffffffffff16141561051d576040517f08c379a000000000000000000000000000000000000000000000000000000000815260040161051490610ceb565b60405180910390fd5b6002543414610561576040517f08c379a000000000000000000000000000000000000000000000000000000000815260040161055890610d2b565b60405180910390fd5b600060045460646105729190610e0e565b60643461057f9190610e95565b6105899190610e64565b9050600081346105999190610eef565b9050600160009054906101000a900473ffffffffffffffffffffffffffffffffffffffff1673ffffffffffffffffffffffffffffffffffffffff166108fc839081150290604051600060405180830381858888f19350505050158015610603573d6000803e3d6000fd5b5060008054906101000a900473ffffffffffffffffffffffffffffffffffffffff1673ffffffffffffffffffffffffffffffffffffffff166108fc829081150290604051600060405180830381858888f1935050505015801561066a573d6000803e3d6000fd5b506000600285600754604051602001610684929190610c20565b6040516020818303038152906040526040516106a09190610c09565b602060405180830381855afa1580156106bd573d6000803e3d6000fd5b5050506040513d601f19601f820116820180604052508101906106e09190610a56565b90506000600654821490507fe257493aadf7f46b45ae5043c2479a0f9a5d7ddd159e0d145b81e1501b3ffb6a868260405161071c929190610cbb565b60405180910390a180156107f3578560089080519060200190610740929190610936565b506001600960006101000a81548160ff02191690831515021790555033600960016101000a81548173ffffffffffffffffffffffffffffffffffffffff021916908373ffffffffffffffffffffffffffffffffffffffff1602179055503373ffffffffffffffffffffffffffffffffffffffff166108fc6003549081150290604051600060405180830381858888f193505050501580156107e5573d6000803e3d6000fd5b5060019450505050506107fc565b60009450505050505b919050565b60045481565b60025481565b600160009054906101000a900473ffffffffffffffffffffffffffffffffffffffff1673ffffffffffffffffffffffffffffffffffffffff163373ffffffffffffffffffffffffffffffffffffffff161461089d576040517f08c379a000000000000000000000000000000000000000000000000000000000815260040161089490610d0b565b60405180910390fd5b600160009054906101000a900473ffffffffffffffffffffffffffffffffffffffff1673ffffffffffffffffffffffffffffffffffffffff16ff5b600160009054906101000a900473ffffffffffffffffffffffffffffffffffffffff1681565b60065481565b60075481565b600960019054906101000a900473ffffffffffffffffffffffffffffffffffffffff1681565b60035481565b82805461094290610fb7565b90600052602060002090601f01602090048101928261096457600085556109ab565b82601f1061097d57805160ff19168380011785556109ab565b828001600101855582156109ab579182015b828111156109aa57825182559160200191906001019061098f565b5b5090506109b891906109bc565b5090565b5b808211156109d55760008160009055506001016109bd565b5090565b60006109ec6109e784610dab565b610d86565b905082815260208101848484011115610a0457600080fd5b610a0f848285610f75565b509392505050565b600081519050610a26816111bb565b92915050565b600082601f830112610a3d57600080fd5b8135610a4d8482602086016109d9565b91505092915050565b600060208284031215610a6857600080fd5b6000610a7684828501610a17565b91505092915050565b600060208284031215610a9157600080fd5b600082013567ffffffffffffffff811115610aab57600080fd5b610ab784828501610a2c565b91505092915050565b610ac981610f23565b82525050565b610ad881610f35565b82525050565b610ae781610f41565b82525050565b610afe610af982610f41565b61101a565b82525050565b6000610b0f82610ddc565b610b198185610df2565b9350610b29818560208601610f84565b80840191505092915050565b6000610b4082610de7565b610b4a8185610dfd565b9350610b5a818560208601610f84565b610b63816110e0565b840191505092915050565b6000610b7b602483610dfd565b9150610b86826110f1565b604082019050919050565b6000610b9e600e83610dfd565b9150610ba982611140565b602082019050919050565b6000610bc1601583610dfd565b9150610bcc82611169565b602082019050919050565b6000610be4601083610dfd565b9150610bef82611192565b602082019050919050565b610c0381610f6b565b82525050565b6000610c158284610b04565b915081905092915050565b6000610c2c8285610b04565b9150610c388284610aed565b6020820191508190509392505050565b6000602082019050610c5d6000830184610ac0565b92915050565b6000602082019050610c786000830184610acf565b92915050565b6000602082019050610c936000830184610ade565b92915050565b60006020820190508181036000830152610cb38184610b35565b905092915050565b60006040820190508181036000830152610cd58185610b35565b9050610ce46020830184610acf565b9392505050565b60006020820190508181036000830152610d0481610b6e565b9050919050565b60006020820190508181036000830152610d2481610b91565b9050919050565b60006020820190508181036000830152610d4481610bb4565b9050919050565b60006020820190508181036000830152610d6481610bd7565b9050919050565b6000602082019050610d806000830184610bfa565b92915050565b6000610d90610da1565b9050610d9c8282610fe9565b919050565b6000604051905090565b600067ffffffffffffffff821115610dc657610dc56110b1565b5b610dcf826110e0565b9050602081019050919050565b600081519050919050565b600081519050919050565b600081905092915050565b600082825260208201905092915050565b6000610e1982610f6b565b9150610e2483610f6b565b9250827fffffffffffffffffffffffffffffffffffffffffffffffffffffffffffffffff03821115610e5957610e58611024565b5b828201905092915050565b6000610e6f82610f6b565b9150610e7a83610f6b565b925082610e8a57610e89611053565b5b828204905092915050565b6000610ea082610f6b565b9150610eab83610f6b565b9250817fffffffffffffffffffffffffffffffffffffffffffffffffffffffffffffffff0483118215151615610ee457610ee3611024565b5b828202905092915050565b6000610efa82610f6b565b9150610f0583610f6b565b925082821015610f1857610f17611024565b5b828203905092915050565b6000610f2e82610f4b565b9050919050565b60008115159050919050565b6000819050919050565b600073ffffffffffffffffffffffffffffffffffffffff82169050919050565b6000819050919050565b82818337600083830152505050565b60005b83811015610fa2578082015181840152602081019050610f87565b83811115610fb1576000848401525b50505050565b60006002820490506001821680610fcf57607f821691505b60208210811415610fe357610fe2611082565b5b50919050565b610ff2826110e0565b810181811067ffffffffffffffff82111715611011576110106110b1565b5b80604052505050565b6000819050919050565b7f4e487b7100000000000000000000000000000000000000000000000000000000600052601160045260246000fd5b7f4e487b7100000000000000000000000000000000000000000000000000000000600052601260045260246000fd5b7f4e487b7100000000000000000000000000000000000000000000000000000000600052602260045260246000fd5b7f4e487b7100000000000000000000000000000000000000000000000000000000600052604160045260246000fd5b6000601f19601f8301169050919050565b7f596f75206b6e6f772074686520616e737765722c20746861742773206e6f206660008201527f6169722100000000000000000000000000000000000000000000000000000000602082015250565b7f4163636573732064656e6965642e000000000000000000000000000000000000600082015250565b7f496e76616c696420677565737320616d6f756e742e0000000000000000000000600082015250565b7f536f7272792c20746f6f206c6174652100000000000000000000000000000000600082015250565b6111c481610f41565b81146111cf57600080fd5b5056fea2646970667358221220f95a30f9f7244bf82de96c17776f1640b323d2e3381533e3fa2309901b7ce59264736f6c63430008040033a26469706673582212206695ed49af1cd1d19201ce983237a3e23b5d10d2092c477d26f5850d09cabbb864736f6c63430008040033",
  "immutableReferences": {},
  "source": "pragma solidity >=0.7.0 <0.9.0;\n\nimport \"./Riddle.sol\";\n\n\ncontract Riddler {\n\n    address public creator;\n    uint public creatorFeePercent;\n\n    event RiddleCreated(string riddle, address contractAddress);\n\n    constructor(uint creatorFeePercentValue) {\n        creator = msg.sender;\n        creatorFeePercent = creatorFeePercentValue;\n    }\n\n    function destroy() public {\n        require(msg.sender == creator, \"Access denied.\");\n        selfdestruct(payable(creator));\n    }\n\n    function riddleMeThis(\n        string memory riddle,\n        string memory answer,\n        uint guessCostValue,\n        string memory salt\n    ) public returns(address) {\n        Riddle newContract = new Riddle(\n            riddle,\n            answer,\n            guessCostValue,\n            creatorFeePercent,\n            creator,\n            salt\n        );\n        address contractAddress = address(newContract);\n        emit RiddleCreated(riddle, contractAddress);\n        return contractAddress;\n    }\n\n}\n",
  "sourcePath": "/Users/cam/Projects/dapp-test-3/contracts/Riddler.sol",
  "compiler": {
    "name": "solc",
    "version": "0.8.4+commit.c7e474f2.Emscripten.clang"
  },
  "schemaVersion": "3.4.0",
  "updatedAt": "2021-05-07T00:01:14.684Z",
  "networkType": "ethereum",
  "devdoc": {
    "kind": "dev",
    "methods": {},
    "version": 1
  },
  "userdoc": {
    "kind": "user",
    "methods": {},
    "version": 1
  }
}